{
  "contractName": "FirstContract",
  "abi": [
    {
      "anonymous": false,
      "inputs": [
        {
          "indexed": false,
          "internalType": "string",
          "name": "fName",
          "type": "string"
        },
        {
          "indexed": false,
          "internalType": "uint256",
          "name": "age",
          "type": "uint256"
        }
      ],
      "name": "eventInfo",
      "type": "event"
    },
    {
      "constant": true,
      "inputs": [],
      "name": "age",
      "outputs": [
        {
          "internalType": "uint256",
          "name": "",
          "type": "uint256"
        }
      ],
      "payable": false,
      "stateMutability": "view",
      "type": "function"
    },
    {
      "constant": true,
      "inputs": [],
      "name": "fName",
      "outputs": [
        {
          "internalType": "string",
          "name": "",
          "type": "string"
        }
      ],
      "payable": false,
      "stateMutability": "view",
      "type": "function"
    },
    {
      "constant": false,
      "inputs": [
        {
          "internalType": "string",
          "name": "_fName",
          "type": "string"
        },
        {
          "internalType": "uint256",
          "name": "_age",
          "type": "uint256"
        }
      ],
      "name": "setInfo",
      "outputs": [],
      "payable": false,
      "stateMutability": "nonpayable",
      "type": "function"
    },
    {
      "constant": true,
      "inputs": [],
      "name": "getInfo",
      "outputs": [
        {
          "internalType": "string",
          "name": "",
          "type": "string"
        },
        {
          "internalType": "uint256",
          "name": "",
          "type": "uint256"
        }
      ],
      "payable": false,
      "stateMutability": "view",
      "type": "function"
    }
  ],
  "bytecode": "0x608060405234801561001057600080fd5b50610551806100206000396000f3fe608060405234801561001057600080fd5b506004361061004c5760003560e01c8063262a9dff146100515780635a9b0b891461006f5780638262963b146100f95780639e656a41146101be575b600080fd5b610059610241565b6040518082815260200191505060405180910390f35b610077610247565b6040518080602001838152602001828103825284818151815260200191508051906020019080838360005b838110156100bd5780820151818401526020810190506100a2565b50505050905090810190601f1680156100ea5780820380516001836020036101000a031916815260200191505b50935050505060405180910390f35b6101bc6004803603604081101561010f57600080fd5b810190808035906020019064010000000081111561012c57600080fd5b82018360208201111561013e57600080fd5b8035906020019184600183028401116401000000008311171561016057600080fd5b91908080601f016020809104026020016040519081016040528093929190818152602001838380828437600081840152601f19601f820116905080830192505050505050509192919290803590602001909291905050506102f3565b005b6101c66103d9565b6040518080602001828103825283818151815260200191508051906020019080838360005b838110156102065780820151818401526020810190506101eb565b50505050905090810190601f1680156102335780820380516001836020036101000a031916815260200191505b509250505060405180910390f35b60015481565b6060600080600154818054600181600116156101000203166002900480601f0160208091040260200160405190810160405280929190818152602001828054600181600116156101000203166002900480156102e45780601f106102b9576101008083540402835291602001916102e4565b820191906000526020600020905b8154815290600101906020018083116102c757829003601f168201915b50505050509150915091509091565b8160009080519060200190610309929190610477565b50806001819055507fbefd6ef1868f5649723920c4c5ceab553a2197ff8db9c2fee6ad3c0fdc6091f7600060015460405180806020018381526020018281038252848181546001816001161561010002031660029004815260200191508054600181600116156101000203166002900480156103c65780601f1061039b576101008083540402835291602001916103c6565b820191906000526020600020905b8154815290600101906020018083116103a957829003601f168201915b5050935050505060405180910390a15050565b60008054600181600116156101000203166002900480601f01602080910402602001604051908101604052809291908181526020018280546001816001161561010002031660029004801561046f5780601f106104445761010080835404028352916020019161046f565b820191906000526020600020905b81548152906001019060200180831161045257829003601f168201915b505050505081565b828054600181600116156101000203166002900490600052602060002090601f016020900481019282601f106104b857805160ff19168380011785556104e6565b828001600101855582156104e6579182015b828111156104e55782518255916020019190600101906104ca565b5b5090506104f391906104f7565b5090565b61051991905b808211156105155760008160009055506001016104fd565b5090565b9056fea265627a7a72315820b74052fc85718040713cc3ce32305e3c5eda4313752f292d2731d5d91be186d464736f6c63430005100032",
  "source": "pragma solidity >=0.4.24 < 0.7.0;\n \ncontract FirstContract {\n \n    string public fName;\n    uint public age;\n    event eventInfo(string fName,uint age);\n \n    function setInfo(string memory _fName, uint _age) public  {\n        fName = _fName;\n        age = _age;\n        emit eventInfo(fName,age);\n    }\n \n    function getInfo() public view returns (string memory, uint) {\n        return (fName, age);\n    }\n}",
  "sourcePath": "D:/A学习文件备份/毕设/web部分/contracts/FirstContract.sol",
  "compiler": {
    "name": "solc",
    "version": "0.5.16+commit.9c3226ce.Emscripten.clang"
  },
  "schemaVersion": "3.2.4",
  "updatedAt": "2021-11-18T13:59:11.373Z",
  "devdoc": {
    "methods": {}
  },
  "userdoc": {
    "methods": {}
  }
}