{
  "contractName": "SewageTreat",
  "abi": [
    {
      "constant": true,
      "inputs": [
        {
          "internalType": "uint256",
          "name": "",
          "type": "uint256"
        }
      ],
      "name": "TreatmentA",
      "outputs": [
        {
          "internalType": "address",
          "name": "",
          "type": "address"
        }
      ],
      "payable": false,
      "stateMutability": "view",
      "type": "function"
    },
    {
      "constant": true,
      "inputs": [
        {
          "internalType": "uint256",
          "name": "",
          "type": "uint256"
        }
      ],
      "name": "TreatmentB",
      "outputs": [
        {
          "internalType": "address",
          "name": "",
          "type": "address"
        }
      ],
      "payable": false,
      "stateMutability": "view",
      "type": "function"
    },
    {
      "constant": false,
      "inputs": [
        {
          "internalType": "uint256",
          "name": "number",
          "type": "uint256"
        }
      ],
      "name": "writePollutionNumber",
      "outputs": [],
      "payable": false,
      "stateMutability": "nonpayable",
      "type": "function"
    },
    {
      "constant": false,
      "inputs": [],
      "name": "setPollutionDegree",
      "outputs": [],
      "payable": false,
      "stateMutability": "nonpayable",
      "type": "function"
    },
    {
      "constant": true,
      "inputs": [],
      "name": "callbackNumber",
      "outputs": [
        {
          "internalType": "uint256",
          "name": "",
          "type": "uint256"
        }
      ],
      "payable": false,
      "stateMutability": "view",
      "type": "function"
    },
    {
      "constant": true,
      "inputs": [],
      "name": "callbackDegree",
      "outputs": [
        {
          "internalType": "uint256",
          "name": "",
          "type": "uint256"
        }
      ],
      "payable": false,
      "stateMutability": "view",
      "type": "function"
    }
  ],
  "bytecode": "0x608060405234801561001057600080fd5b506102c6806100206000396000f3fe608060405234801561001057600080fd5b50600436106100625760003560e01c8063594f0c2d146100675780635b8c74c4146100d5578063a8136742146100f3578063aec8568214610111578063c9af8aa21461017f578063dc869b50146101ad575b600080fd5b6100936004803603602081101561007d57600080fd5b81019080803590602001909291905050506101b7565b604051808273ffffffffffffffffffffffffffffffffffffffff1673ffffffffffffffffffffffffffffffffffffffff16815260200191505060405180910390f35b6100dd6101ea565b6040518082815260200191505060405180910390f35b6100fb6101f4565b6040518082815260200191505060405180910390f35b61013d6004803603602081101561012757600080fd5b81019080803590602001909291905050506101fe565b604051808273ffffffffffffffffffffffffffffffffffffffff1673ffffffffffffffffffffffffffffffffffffffff16815260200191505060405180910390f35b6101ab6004803603602081101561019557600080fd5b8101908080359060200190929190505050610231565b005b6101b561023b565b005b600081601081106101c457fe5b016000915054906101000a900473ffffffffffffffffffffffffffffffffffffffff1681565b6000602054905090565b6000602154905090565b6010816010811061020b57fe5b016000915054906101000a900473ffffffffffffffffffffffffffffffffffffffff1681565b8060208190555050565b61012c602054111561025457600360218190555061028f565b60c8602054111561026c57600260218190555061028e565b6064602054111561028457600160218190555061028d565b60006021819055505b5b5b56fea265627a7a72315820a6fc038e918b71ea4cbb5febceef54872c60c07e21bf2fecd5cbc1f71e17190664736f6c63430005100032",
  "source": "// SPDX-License-Identifier: SimPL-2.0\r\npragma solidity >=0.4.24 < 0.7.0;\r\ncontract SewageTreat{\r\n    address[16] public TreatmentA;  //TreatmentA指监管人\r\n    address[16] public TreatmentB;  //TreatmentB指污水处理机构\r\n    uint pollutionNumber;\r\n    uint pollutionDegree;\r\n    \r\n    function writePollutionNumber(uint number) public {\r\n        pollutionNumber = number;\r\n    }\r\n    \r\n    function setPollutionDegree() public{\r\n        // switch(calldataload(4)){\r\n        //     case 0 {\r\n        //         x := calldataload(0x24)\r\n        //     }\r\n        //     default {\r\n        //         x := calldataload(0x44)\r\n        //     }\r\n        // }\r\n        if(pollutionNumber>300){\r\n            pollutionDegree = 3;\r\n        }\r\n        else if(pollutionNumber>200){\r\n            pollutionDegree = 2;\r\n        }\r\n        else if(pollutionNumber>100){\r\n            pollutionDegree = 1;\r\n        }\r\n        else pollutionDegree = 0;\r\n    }\r\n    \r\n    function callbackNumber() view public returns (uint){\r\n        return pollutionNumber;\r\n    }\r\n    \r\n    function callbackDegree() view public returns (uint){\r\n        return pollutionDegree;\r\n    }\r\n}",
  "sourcePath": "D:/A学习文件备份/毕设/web部分/watermonitor-vue/contracts/Treatment.sol",
  "compiler": {
    "name": "solc",
    "version": "0.5.16+commit.9c3226ce.Emscripten.clang"
  },
  "schemaVersion": "3.2.4",
  "updatedAt": "2021-11-20T04:35:51.019Z",
  "devdoc": {
    "methods": {}
  },
  "userdoc": {
    "methods": {}
  }
}